{
  "_format": "hh-sol-artifact-1",
  "contractName": "SimpleNFT",
  "sourceName": "contracts/SimpleNFT.sol",
  "abi": [
    {
      "inputs": [],
      "stateMutability": "nonpayable",
      "type": "constructor"
    },
    {
      "anonymous": false,
      "inputs": [
        {
          "indexed": true,
          "internalType": "address",
          "name": "owner",
          "type": "address"
        },
        {
          "indexed": true,
          "internalType": "address",
          "name": "approved",
          "type": "address"
        },
        {
          "indexed": true,
          "internalType": "uint256",
          "name": "tokenId",
          "type": "uint256"
        }
      ],
      "name": "Approval",
      "type": "event"
    },
    {
      "anonymous": false,
      "inputs": [
        {
          "indexed": true,
          "internalType": "address",
          "name": "owner",
          "type": "address"
        },
        {
          "indexed": true,
          "internalType": "address",
          "name": "operator",
          "type": "address"
        },
        {
          "indexed": false,
          "internalType": "bool",
          "name": "approved",
          "type": "bool"
        }
      ],
      "name": "ApprovalForAll",
      "type": "event"
    },
    {
      "anonymous": false,
      "inputs": [
        {
          "indexed": false,
          "internalType": "uint256",
          "name": "_fromTokenId",
          "type": "uint256"
        },
        {
          "indexed": false,
          "internalType": "uint256",
          "name": "_toTokenId",
          "type": "uint256"
        }
      ],
      "name": "BatchMetadataUpdate",
      "type": "event"
    },
    {
      "anonymous": false,
      "inputs": [
        {
          "indexed": false,
          "internalType": "uint256",
          "name": "_tokenId",
          "type": "uint256"
        }
      ],
      "name": "MetadataUpdate",
      "type": "event"
    },
    {
      "anonymous": false,
      "inputs": [
        {
          "indexed": true,
          "internalType": "address",
          "name": "previousOwner",
          "type": "address"
        },
        {
          "indexed": true,
          "internalType": "address",
          "name": "newOwner",
          "type": "address"
        }
      ],
      "name": "OwnershipTransferred",
      "type": "event"
    },
    {
      "anonymous": false,
      "inputs": [
        {
          "indexed": true,
          "internalType": "address",
          "name": "from",
          "type": "address"
        },
        {
          "indexed": true,
          "internalType": "address",
          "name": "to",
          "type": "address"
        },
        {
          "indexed": true,
          "internalType": "uint256",
          "name": "tokenId",
          "type": "uint256"
        }
      ],
      "name": "Transfer",
      "type": "event"
    },
    {
      "inputs": [
        {
          "internalType": "address",
          "name": "to",
          "type": "address"
        },
        {
          "internalType": "uint256",
          "name": "tokenId",
          "type": "uint256"
        }
      ],
      "name": "approve",
      "outputs": [],
      "stateMutability": "nonpayable",
      "type": "function"
    },
    {
      "inputs": [
        {
          "internalType": "address",
          "name": "owner",
          "type": "address"
        }
      ],
      "name": "balanceOf",
      "outputs": [
        {
          "internalType": "uint256",
          "name": "",
          "type": "uint256"
        }
      ],
      "stateMutability": "view",
      "type": "function"
    },
    {
      "inputs": [
        {
          "internalType": "uint256",
          "name": "tokenId",
          "type": "uint256"
        }
      ],
      "name": "getApproved",
      "outputs": [
        {
          "internalType": "address",
          "name": "",
          "type": "address"
        }
      ],
      "stateMutability": "view",
      "type": "function"
    },
    {
      "inputs": [
        {
          "internalType": "address",
          "name": "owner",
          "type": "address"
        },
        {
          "internalType": "address",
          "name": "operator",
          "type": "address"
        }
      ],
      "name": "isApprovedForAll",
      "outputs": [
        {
          "internalType": "bool",
          "name": "",
          "type": "bool"
        }
      ],
      "stateMutability": "view",
      "type": "function"
    },
    {
      "inputs": [
        {
          "internalType": "address",
          "name": "recipient",
          "type": "address"
        },
        {
          "internalType": "string",
          "name": "tokenURI",
          "type": "string"
        }
      ],
      "name": "mintNFT",
      "outputs": [
        {
          "internalType": "uint256",
          "name": "",
          "type": "uint256"
        }
      ],
      "stateMutability": "nonpayable",
      "type": "function"
    },
    {
      "inputs": [],
      "name": "name",
      "outputs": [
        {
          "internalType": "string",
          "name": "",
          "type": "string"
        }
      ],
      "stateMutability": "view",
      "type": "function"
    },
    {
      "inputs": [],
      "name": "owner",
      "outputs": [
        {
          "internalType": "address",
          "name": "",
          "type": "address"
        }
      ],
      "stateMutability": "view",
      "type": "function"
    },
    {
      "inputs": [
        {
          "internalType": "uint256",
          "name": "tokenId",
          "type": "uint256"
        }
      ],
      "name": "ownerOf",
      "outputs": [
        {
          "internalType": "address",
          "name": "",
          "type": "address"
        }
      ],
      "stateMutability": "view",
      "type": "function"
    },
    {
      "inputs": [],
      "name": "renounceOwnership",
      "outputs": [],
      "stateMutability": "nonpayable",
      "type": "function"
    },
    {
      "inputs": [
        {
          "internalType": "address",
          "name": "from",
          "type": "address"
        },
        {
          "internalType": "address",
          "name": "to",
          "type": "address"
        },
        {
          "internalType": "uint256",
          "name": "tokenId",
          "type": "uint256"
        }
      ],
      "name": "safeTransferFrom",
      "outputs": [],
      "stateMutability": "nonpayable",
      "type": "function"
    },
    {
      "inputs": [
        {
          "internalType": "address",
          "name": "from",
          "type": "address"
        },
        {
          "internalType": "address",
          "name": "to",
          "type": "address"
        },
        {
          "internalType": "uint256",
          "name": "tokenId",
          "type": "uint256"
        },
        {
          "internalType": "bytes",
          "name": "data",
          "type": "bytes"
        }
      ],
      "name": "safeTransferFrom",
      "outputs": [],
      "stateMutability": "nonpayable",
      "type": "function"
    },
    {
      "inputs": [
        {
          "internalType": "address",
          "name": "operator",
          "type": "address"
        },
        {
          "internalType": "bool",
          "name": "approved",
          "type": "bool"
        }
      ],
      "name": "setApprovalForAll",
      "outputs": [],
      "stateMutability": "nonpayable",
      "type": "function"
    },
    {
      "inputs": [
        {
          "internalType": "bytes4",
          "name": "interfaceId",
          "type": "bytes4"
        }
      ],
      "name": "supportsInterface",
      "outputs": [
        {
          "internalType": "bool",
          "name": "",
          "type": "bool"
        }
      ],
      "stateMutability": "view",
      "type": "function"
    },
    {
      "inputs": [],
      "name": "symbol",
      "outputs": [
        {
          "internalType": "string",
          "name": "",
          "type": "string"
        }
      ],
      "stateMutability": "view",
      "type": "function"
    },
    {
      "inputs": [
        {
          "internalType": "uint256",
          "name": "tokenId",
          "type": "uint256"
        }
      ],
      "name": "tokenURI",
      "outputs": [
        {
          "internalType": "string",
          "name": "",
          "type": "string"
        }
      ],
      "stateMutability": "view",
      "type": "function"
    },
    {
      "inputs": [],
      "name": "totalMinted",
      "outputs": [
        {
          "internalType": "uint256",
          "name": "",
          "type": "uint256"
        }
      ],
      "stateMutability": "view",
      "type": "function"
    },
    {
      "inputs": [
        {
          "internalType": "address",
          "name": "from",
          "type": "address"
        },
        {
          "internalType": "address",
          "name": "to",
          "type": "address"
        },
        {
          "internalType": "uint256",
          "name": "tokenId",
          "type": "uint256"
        }
      ],
      "name": "transferFrom",
      "outputs": [],
      "stateMutability": "nonpayable",
      "type": "function"
    },
    {
      "inputs": [
        {
          "internalType": "address",
          "name": "newOwner",
          "type": "address"
        }
      ],
      "name": "transferOwnership",
      "outputs": [],
      "stateMutability": "nonpayable",
      "type": "function"
    }
  ],
  "bytecode": "0x60806040523480156200001157600080fd5b506040518060400160405280600981526020017f53696d706c654e465400000000000000000000000000000000000000000000008152506040518060400160405280600481526020017f534e46540000000000000000000000000000000000000000000000000000000081525081600090816200008f919062000412565b508060019081620000a1919062000412565b505050620000c4620000b8620000ca60201b60201c565b620000d260201b60201c565b620004f9565b600033905090565b6000600760009054906101000a900473ffffffffffffffffffffffffffffffffffffffff16905081600760006101000a81548173ffffffffffffffffffffffffffffffffffffffff021916908373ffffffffffffffffffffffffffffffffffffffff1602179055508173ffffffffffffffffffffffffffffffffffffffff168173ffffffffffffffffffffffffffffffffffffffff167f8be0079c531659141344cd1fd0a4f28419497f9722a3daafe3b4186f6b6457e060405160405180910390a35050565b600081519050919050565b7f4e487b7100000000000000000000000000000000000000000000000000000000600052604160045260246000fd5b7f4e487b7100000000000000000000000000000000000000000000000000000000600052602260045260246000fd5b600060028204905060018216806200021a57607f821691505b60208210810362000230576200022f620001d2565b5b50919050565b60008190508160005260206000209050919050565b60006020601f8301049050919050565b600082821b905092915050565b6000600883026200029a7fffffffffffffffffffffffffffffffffffffffffffffffffffffffffffffffff826200025b565b620002a686836200025b565b95508019841693508086168417925050509392505050565b6000819050919050565b6000819050919050565b6000620002f3620002ed620002e784620002be565b620002c8565b620002be565b9050919050565b6000819050919050565b6200030f83620002d2565b620003276200031e82620002fa565b84845462000268565b825550505050565b600090565b6200033e6200032f565b6200034b81848462000304565b505050565b5b8181101562000373576200036760008262000334565b60018101905062000351565b5050565b601f821115620003c2576200038c8162000236565b62000397846200024b565b81016020851015620003a7578190505b620003bf620003b6856200024b565b83018262000350565b50505b505050565b600082821c905092915050565b6000620003e760001984600802620003c7565b1980831691505092915050565b6000620004028383620003d4565b9150826002028217905092915050565b6200041d8262000198565b67ffffffffffffffff811115620004395762000438620001a3565b5b62000445825462000201565b6200045282828562000377565b600060209050601f8311600181146200048a576000841562000475578287015190505b620004818582620003f4565b865550620004f1565b601f1984166200049a8662000236565b60005b82811015620004c4578489015182556001820191506020850194506020810190506200049d565b86831015620004e45784890151620004e0601f891682620003d4565b8355505b6001600288020188555050505b505050505050565b612e8a80620005096000396000f3fe608060405234801561001057600080fd5b50600436106101165760003560e01c80638da5cb5b116100a2578063b88d4fde11610071578063b88d4fde146102cd578063c87b56dd146102e9578063e985e9c514610319578063eacabe1414610349578063f2fde38b1461037957610116565b80638da5cb5b1461025757806395d89b4114610275578063a22cb46514610293578063a2309ff8146102af57610116565b806323b872dd116100e957806323b872dd146101b557806342842e0e146101d15780636352211e146101ed57806370a082311461021d578063715018a61461024d57610116565b806301ffc9a71461011b57806306fdde031461014b578063081812fc14610169578063095ea7b314610199575b600080fd5b61013560048036038101906101309190611c7b565b610395565b6040516101429190611cc3565b60405180910390f35b6101536103f6565b6040516101609190611d6e565b60405180910390f35b610183600480360381019061017e9190611dc6565b610488565b6040516101909190611e34565b60405180910390f35b6101b360048036038101906101ae9190611e7b565b6104ce565b005b6101cf60048036038101906101ca9190611ebb565b6105e5565b005b6101eb60048036038101906101e69190611ebb565b610645565b005b61020760048036038101906102029190611dc6565b610665565b6040516102149190611e34565b60405180910390f35b61023760048036038101906102329190611f0e565b6106eb565b6040516102449190611f4a565b60405180910390f35b6102556107a2565b005b61025f6107b6565b60405161026c9190611e34565b60405180910390f35b61027d6107e0565b60405161028a9190611d6e565b60405180910390f35b6102ad60048036038101906102a89190611f91565b610872565b005b6102b7610888565b6040516102c49190611f4a565b60405180910390f35b6102e760048036038101906102e29190612106565b610899565b005b61030360048036038101906102fe9190611dc6565b6108fb565b6040516103109190611d6e565b60405180910390f35b610333600480360381019061032e9190612189565b610a0d565b6040516103409190611cc3565b60405180910390f35b610363600480360381019061035e919061226a565b610aa1565b6040516103709190611f4a565b60405180910390f35b610393600480360381019061038e9190611f0e565b610ae1565b005b6000634906490660e01b7bffffffffffffffffffffffffffffffffffffffffffffffffffffffff1916827bffffffffffffffffffffffffffffffffffffffffffffffffffffffff191614806103ef57506103ee82610b64565b5b9050919050565b606060008054610405906122f5565b80601f0160208091040260200160405190810160405280929190818152602001828054610431906122f5565b801561047e5780601f106104535761010080835404028352916020019161047e565b820191906000526020600020905b81548152906001019060200180831161046157829003601f168201915b5050505050905090565b600061049382610c46565b6004600083815260200190815260200160002060009054906101000a900473ffffffffffffffffffffffffffffffffffffffff169050919050565b60006104d982610665565b90508073ffffffffffffffffffffffffffffffffffffffff168373ffffffffffffffffffffffffffffffffffffffff1603610549576040517f08c379a000000000000000000000000000000000000000000000000000000000815260040161054090612398565b60405180910390fd5b8073ffffffffffffffffffffffffffffffffffffffff16610568610c91565b73ffffffffffffffffffffffffffffffffffffffff161480610597575061059681610591610c91565b610a0d565b5b6105d6576040517f08c379a00000000000000000000000000000000000000000000000000000000081526004016105cd9061242a565b60405180910390fd5b6105e08383610c99565b505050565b6105f66105f0610c91565b82610d52565b610635576040517f08c379a000000000000000000000000000000000000000000000000000000000815260040161062c906124bc565b60405180910390fd5b610640838383610de7565b505050565b61066083838360405180602001604052806000815250610899565b505050565b600080610671836110e0565b9050600073ffffffffffffffffffffffffffffffffffffffff168173ffffffffffffffffffffffffffffffffffffffff16036106e2576040517f08c379a00000000000000000000000000000000000000000000000000000000081526004016106d990612528565b60405180910390fd5b80915050919050565b60008073ffffffffffffffffffffffffffffffffffffffff168273ffffffffffffffffffffffffffffffffffffffff160361075b576040517f08c379a0000000000000000000000000000000000000000000000000000000008152600401610752906125ba565b60405180910390fd5b600360008373ffffffffffffffffffffffffffffffffffffffff1673ffffffffffffffffffffffffffffffffffffffff168152602001908152602001600020549050919050565b6107aa61111d565b6107b4600061119b565b565b6000600760009054906101000a900473ffffffffffffffffffffffffffffffffffffffff16905090565b6060600180546107ef906122f5565b80601f016020809104026020016040519081016040528092919081815260200182805461081b906122f5565b80156108685780601f1061083d57610100808354040283529160200191610868565b820191906000526020600020905b81548152906001019060200180831161084b57829003601f168201915b5050505050905090565b61088461087d610c91565b8383611261565b5050565b600061089460086113cd565b905090565b6108aa6108a4610c91565b83610d52565b6108e9576040517f08c379a00000000000000000000000000000000000000000000000000000000081526004016108e0906124bc565b60405180910390fd5b6108f5848484846113db565b50505050565b606061090682610c46565b6000600660008481526020019081526020016000208054610926906122f5565b80601f0160208091040260200160405190810160405280929190818152602001828054610952906122f5565b801561099f5780601f106109745761010080835404028352916020019161099f565b820191906000526020600020905b81548152906001019060200180831161098257829003601f168201915b5050505050905060006109b0611437565b905060008151036109c5578192505050610a08565b6000825111156109fa5780826040516020016109e2929190612616565b60405160208183030381529060405292505050610a08565b610a038461144e565b925050505b919050565b6000600560008473ffffffffffffffffffffffffffffffffffffffff1673ffffffffffffffffffffffffffffffffffffffff16815260200190815260200160002060008373ffffffffffffffffffffffffffffffffffffffff1673ffffffffffffffffffffffffffffffffffffffff16815260200190815260200160002060009054906101000a900460ff16905092915050565b6000610aab61111d565b610ab560086114b6565b6000610ac160086113cd565b9050610acd84826114cc565b610ad781846116e9565b8091505092915050565b610ae961111d565b600073ffffffffffffffffffffffffffffffffffffffff168173ffffffffffffffffffffffffffffffffffffffff1603610b58576040517f08c379a0000000000000000000000000000000000000000000000000000000008152600401610b4f906126ac565b60405180910390fd5b610b618161119b565b50565b60007f80ac58cd000000000000000000000000000000000000000000000000000000007bffffffffffffffffffffffffffffffffffffffffffffffffffffffff1916827bffffffffffffffffffffffffffffffffffffffffffffffffffffffff19161480610c2f57507f5b5e139f000000000000000000000000000000000000000000000000000000007bffffffffffffffffffffffffffffffffffffffffffffffffffffffff1916827bffffffffffffffffffffffffffffffffffffffffffffffffffffffff1916145b80610c3f5750610c3e8261178d565b5b9050919050565b610c4f816117f7565b610c8e576040517f08c379a0000000000000000000000000000000000000000000000000000000008152600401610c8590612528565b60405180910390fd5b50565b600033905090565b816004600083815260200190815260200160002060006101000a81548173ffffffffffffffffffffffffffffffffffffffff021916908373ffffffffffffffffffffffffffffffffffffffff160217905550808273ffffffffffffffffffffffffffffffffffffffff16610d0c83610665565b73ffffffffffffffffffffffffffffffffffffffff167f8c5be1e5ebec7d5bd14f71427d1e84f3dd0314c0f7b2291e5b200ac8c7c3b92560405160405180910390a45050565b600080610d5e83610665565b90508073ffffffffffffffffffffffffffffffffffffffff168473ffffffffffffffffffffffffffffffffffffffff161480610da05750610d9f8185610a0d565b5b80610dde57508373ffffffffffffffffffffffffffffffffffffffff16610dc684610488565b73ffffffffffffffffffffffffffffffffffffffff16145b91505092915050565b8273ffffffffffffffffffffffffffffffffffffffff16610e0782610665565b73ffffffffffffffffffffffffffffffffffffffff1614610e5d576040517f08c379a0000000000000000000000000000000000000000000000000000000008152600401610e549061273e565b60405180910390fd5b600073ffffffffffffffffffffffffffffffffffffffff168273ffffffffffffffffffffffffffffffffffffffff1603610ecc576040517f08c379a0000000000000000000000000000000000000000000000000000000008152600401610ec3906127d0565b60405180910390fd5b610ed98383836001611838565b8273ffffffffffffffffffffffffffffffffffffffff16610ef982610665565b73ffffffffffffffffffffffffffffffffffffffff1614610f4f576040517f08c379a0000000000000000000000000000000000000000000000000000000008152600401610f469061273e565b60405180910390fd5b6004600082815260200190815260200160002060006101000a81549073ffffffffffffffffffffffffffffffffffffffff02191690556001600360008573ffffffffffffffffffffffffffffffffffffffff1673ffffffffffffffffffffffffffffffffffffffff168152602001908152602001600020600082825403925050819055506001600360008473ffffffffffffffffffffffffffffffffffffffff1673ffffffffffffffffffffffffffffffffffffffff16815260200190815260200160002060008282540192505081905550816002600083815260200190815260200160002060006101000a81548173ffffffffffffffffffffffffffffffffffffffff021916908373ffffffffffffffffffffffffffffffffffffffff160217905550808273ffffffffffffffffffffffffffffffffffffffff168473ffffffffffffffffffffffffffffffffffffffff167fddf252ad1be2c89b69c2b068fc378daa952ba7f163c4a11628f55a4df523b3ef60405160405180910390a46110db838383600161183e565b505050565b60006002600083815260200190815260200160002060009054906101000a900473ffffffffffffffffffffffffffffffffffffffff169050919050565b611125610c91565b73ffffffffffffffffffffffffffffffffffffffff166111436107b6565b73ffffffffffffffffffffffffffffffffffffffff1614611199576040517f08c379a00000000000000000000000000000000000000000000000000000000081526004016111909061283c565b60405180910390fd5b565b6000600760009054906101000a900473ffffffffffffffffffffffffffffffffffffffff16905081600760006101000a81548173ffffffffffffffffffffffffffffffffffffffff021916908373ffffffffffffffffffffffffffffffffffffffff1602179055508173ffffffffffffffffffffffffffffffffffffffff168173ffffffffffffffffffffffffffffffffffffffff167f8be0079c531659141344cd1fd0a4f28419497f9722a3daafe3b4186f6b6457e060405160405180910390a35050565b8173ffffffffffffffffffffffffffffffffffffffff168373ffffffffffffffffffffffffffffffffffffffff16036112cf576040517f08c379a00000000000000000000000000000000000000000000000000000000081526004016112c6906128a8565b60405180910390fd5b80600560008573ffffffffffffffffffffffffffffffffffffffff1673ffffffffffffffffffffffffffffffffffffffff16815260200190815260200160002060008473ffffffffffffffffffffffffffffffffffffffff1673ffffffffffffffffffffffffffffffffffffffff16815260200190815260200160002060006101000a81548160ff0219169083151502179055508173ffffffffffffffffffffffffffffffffffffffff168373ffffffffffffffffffffffffffffffffffffffff167f17307eab39ab6107e8899845ad3d59bd9653f200f220920489ca2b5937696c31836040516113c09190611cc3565b60405180910390a3505050565b600081600001549050919050565b6113e6848484610de7565b6113f284848484611844565b611431576040517f08c379a00000000000000000000000000000000000000000000000000000000081526004016114289061293a565b60405180910390fd5b50505050565b606060405180602001604052806000815250905090565b606061145982610c46565b6000611463611437565b9050600081511161148357604051806020016040528060008152506114ae565b8061148d846119cb565b60405160200161149e929190612616565b6040516020818303038152906040525b915050919050565b6001816000016000828254019250508190555050565b600073ffffffffffffffffffffffffffffffffffffffff168273ffffffffffffffffffffffffffffffffffffffff160361153b576040517f08c379a0000000000000000000000000000000000000000000000000000000008152600401611532906129a6565b60405180910390fd5b611544816117f7565b15611584576040517f08c379a000000000000000000000000000000000000000000000000000000000815260040161157b90612a12565b60405180910390fd5b611592600083836001611838565b61159b816117f7565b156115db576040517f08c379a00000000000000000000000000000000000000000000000000000000081526004016115d290612a12565b60405180910390fd5b6001600360008473ffffffffffffffffffffffffffffffffffffffff1673ffffffffffffffffffffffffffffffffffffffff16815260200190815260200160002060008282540192505081905550816002600083815260200190815260200160002060006101000a81548173ffffffffffffffffffffffffffffffffffffffff021916908373ffffffffffffffffffffffffffffffffffffffff160217905550808273ffffffffffffffffffffffffffffffffffffffff16600073ffffffffffffffffffffffffffffffffffffffff167fddf252ad1be2c89b69c2b068fc378daa952ba7f163c4a11628f55a4df523b3ef60405160405180910390a46116e560008383600161183e565b5050565b6116f2826117f7565b611731576040517f08c379a000000000000000000000000000000000000000000000000000000000815260040161172890612aa4565b60405180910390fd5b806006600084815260200190815260200160002090816117519190612c70565b507ff8e1a15aba9398e019f0b49df1a4fde98ee17ae345cb5f6b5e2c27f5033e8ce7826040516117819190611f4a565b60405180910390a15050565b60007f01ffc9a7000000000000000000000000000000000000000000000000000000007bffffffffffffffffffffffffffffffffffffffffffffffffffffffff1916827bffffffffffffffffffffffffffffffffffffffffffffffffffffffff1916149050919050565b60008073ffffffffffffffffffffffffffffffffffffffff16611819836110e0565b73ffffffffffffffffffffffffffffffffffffffff1614159050919050565b50505050565b50505050565b60006118658473ffffffffffffffffffffffffffffffffffffffff16611a99565b156119be578373ffffffffffffffffffffffffffffffffffffffff1663150b7a0261188e610c91565b8786866040518563ffffffff1660e01b81526004016118b09493929190612d97565b6020604051808303816000875af19250505080156118ec57506040513d601f19601f820116820180604052508101906118e99190612df8565b60015b61196e573d806000811461191c576040519150601f19603f3d011682016040523d82523d6000602084013e611921565b606091505b506000815103611966576040517f08c379a000000000000000000000000000000000000000000000000000000000815260040161195d9061293a565b60405180910390fd5b805181602001fd5b63150b7a0260e01b7bffffffffffffffffffffffffffffffffffffffffffffffffffffffff1916817bffffffffffffffffffffffffffffffffffffffffffffffffffffffff1916149150506119c3565b600190505b949350505050565b6060600060016119da84611abc565b01905060008167ffffffffffffffff8111156119f9576119f8611fdb565b5b6040519080825280601f01601f191660200182016040528015611a2b5781602001600182028036833780820191505090505b509050600082602001820190505b600115611a8e578080600190039150507f3031323334353637383961626364656600000000000000000000000000000000600a86061a8153600a8581611a8257611a81612e25565b5b04945060008503611a39575b819350505050919050565b6000808273ffffffffffffffffffffffffffffffffffffffff163b119050919050565b600080600090507a184f03e93ff9f4daa797ed6e38ed64bf6a1f0100000000000000008310611b1a577a184f03e93ff9f4daa797ed6e38ed64bf6a1f0100000000000000008381611b1057611b0f612e25565b5b0492506040810190505b6d04ee2d6d415b85acef81000000008310611b57576d04ee2d6d415b85acef81000000008381611b4d57611b4c612e25565b5b0492506020810190505b662386f26fc100008310611b8657662386f26fc100008381611b7c57611b7b612e25565b5b0492506010810190505b6305f5e1008310611baf576305f5e1008381611ba557611ba4612e25565b5b0492506008810190505b6127108310611bd4576127108381611bca57611bc9612e25565b5b0492506004810190505b60648310611bf75760648381611bed57611bec612e25565b5b0492506002810190505b600a8310611c06576001810190505b80915050919050565b6000604051905090565b600080fd5b600080fd5b60007fffffffff0000000000000000000000000000000000000000000000000000000082169050919050565b611c5881611c23565b8114611c6357600080fd5b50565b600081359050611c7581611c4f565b92915050565b600060208284031215611c9157611c90611c19565b5b6000611c9f84828501611c66565b91505092915050565b60008115159050919050565b611cbd81611ca8565b82525050565b6000602082019050611cd86000830184611cb4565b92915050565b600081519050919050565b600082825260208201905092915050565b60005b83811015611d18578082015181840152602081019050611cfd565b60008484015250505050565b6000601f19601f8301169050919050565b6000611d4082611cde565b611d4a8185611ce9565b9350611d5a818560208601611cfa565b611d6381611d24565b840191505092915050565b60006020820190508181036000830152611d888184611d35565b905092915050565b6000819050919050565b611da381611d90565b8114611dae57600080fd5b50565b600081359050611dc081611d9a565b92915050565b600060208284031215611ddc57611ddb611c19565b5b6000611dea84828501611db1565b91505092915050565b600073ffffffffffffffffffffffffffffffffffffffff82169050919050565b6000611e1e82611df3565b9050919050565b611e2e81611e13565b82525050565b6000602082019050611e496000830184611e25565b92915050565b611e5881611e13565b8114611e6357600080fd5b50565b600081359050611e7581611e4f565b92915050565b60008060408385031215611e9257611e91611c19565b5b6000611ea085828601611e66565b9250506020611eb185828601611db1565b9150509250929050565b600080600060608486031215611ed457611ed3611c19565b5b6000611ee286828701611e66565b9350506020611ef386828701611e66565b9250506040611f0486828701611db1565b9150509250925092565b600060208284031215611f2457611f23611c19565b5b6000611f3284828501611e66565b91505092915050565b611f4481611d90565b82525050565b6000602082019050611f5f6000830184611f3b565b92915050565b611f6e81611ca8565b8114611f7957600080fd5b50565b600081359050611f8b81611f65565b92915050565b60008060408385031215611fa857611fa7611c19565b5b6000611fb685828601611e66565b9250506020611fc785828601611f7c565b9150509250929050565b600080fd5b600080fd5b7f4e487b7100000000000000000000000000000000000000000000000000000000600052604160045260246000fd5b61201382611d24565b810181811067ffffffffffffffff8211171561203257612031611fdb565b5b80604052505050565b6000612045611c0f565b9050612051828261200a565b919050565b600067ffffffffffffffff82111561207157612070611fdb565b5b61207a82611d24565b9050602081019050919050565b82818337600083830152505050565b60006120a96120a484612056565b61203b565b9050828152602081018484840111156120c5576120c4611fd6565b5b6120d0848285612087565b509392505050565b600082601f8301126120ed576120ec611fd1565b5b81356120fd848260208601612096565b91505092915050565b600080600080608085870312156121205761211f611c19565b5b600061212e87828801611e66565b945050602061213f87828801611e66565b935050604061215087828801611db1565b925050606085013567ffffffffffffffff81111561217157612170611c1e565b5b61217d878288016120d8565b91505092959194509250565b600080604083850312156121a05761219f611c19565b5b60006121ae85828601611e66565b92505060206121bf85828601611e66565b9150509250929050565b600067ffffffffffffffff8211156121e4576121e3611fdb565b5b6121ed82611d24565b9050602081019050919050565b600061220d612208846121c9565b61203b565b90508281526020810184848401111561222957612228611fd6565b5b612234848285612087565b509392505050565b600082601f83011261225157612250611fd1565b5b81356122618482602086016121fa565b91505092915050565b6000806040838503121561228157612280611c19565b5b600061228f85828601611e66565b925050602083013567ffffffffffffffff8111156122b0576122af611c1e565b5b6122bc8582860161223c565b9150509250929050565b7f4e487b7100000000000000000000000000000000000000000000000000000000600052602260045260246000fd5b6000600282049050600182168061230d57607f821691505b6020821081036123205761231f6122c6565b5b50919050565b7f4552433732313a20617070726f76616c20746f2063757272656e74206f776e6560008201527f7200000000000000000000000000000000000000000000000000000000000000602082015250565b6000612382602183611ce9565b915061238d82612326565b604082019050919050565b600060208201905081810360008301526123b181612375565b9050919050565b7f4552433732313a20617070726f76652063616c6c6572206973206e6f7420746f60008201527f6b656e206f776e6572206f7220617070726f76656420666f7220616c6c000000602082015250565b6000612414603d83611ce9565b915061241f826123b8565b604082019050919050565b6000602082019050818103600083015261244381612407565b9050919050565b7f4552433732313a2063616c6c6572206973206e6f7420746f6b656e206f776e6560008201527f72206f7220617070726f76656400000000000000000000000000000000000000602082015250565b60006124a6602d83611ce9565b91506124b18261244a565b604082019050919050565b600060208201905081810360008301526124d581612499565b9050919050565b7f4552433732313a20696e76616c696420746f6b656e2049440000000000000000600082015250565b6000612512601883611ce9565b915061251d826124dc565b602082019050919050565b6000602082019050818103600083015261254181612505565b9050919050565b7f4552433732313a2061646472657373207a65726f206973206e6f74206120766160008201527f6c6964206f776e65720000000000000000000000000000000000000000000000602082015250565b60006125a4602983611ce9565b91506125af82612548565b604082019050919050565b600060208201905081810360008301526125d381612597565b9050919050565b600081905092915050565b60006125f082611cde565b6125fa81856125da565b935061260a818560208601611cfa565b80840191505092915050565b600061262282856125e5565b915061262e82846125e5565b91508190509392505050565b7f4f776e61626c653a206e6577206f776e657220697320746865207a65726f206160008201527f6464726573730000000000000000000000000000000000000000000000000000602082015250565b6000612696602683611ce9565b91506126a18261263a565b604082019050919050565b600060208201905081810360008301526126c581612689565b9050919050565b7f4552433732313a207472616e736665722066726f6d20696e636f72726563742060008201527f6f776e6572000000000000000000000000000000000000000000000000000000602082015250565b6000612728602583611ce9565b9150612733826126cc565b604082019050919050565b600060208201905081810360008301526127578161271b565b9050919050565b7f4552433732313a207472616e7366657220746f20746865207a65726f2061646460008201527f7265737300000000000000000000000000000000000000000000000000000000602082015250565b60006127ba602483611ce9565b91506127c58261275e565b604082019050919050565b600060208201905081810360008301526127e9816127ad565b9050919050565b7f4f776e61626c653a2063616c6c6572206973206e6f7420746865206f776e6572600082015250565b6000612826602083611ce9565b9150612831826127f0565b602082019050919050565b6000602082019050818103600083015261285581612819565b9050919050565b7f4552433732313a20617070726f766520746f2063616c6c657200000000000000600082015250565b6000612892601983611ce9565b915061289d8261285c565b602082019050919050565b600060208201905081810360008301526128c181612885565b9050919050565b7f4552433732313a207472616e7366657220746f206e6f6e20455243373231526560008201527f63656976657220696d706c656d656e7465720000000000000000000000000000602082015250565b6000612924603283611ce9565b915061292f826128c8565b604082019050919050565b6000602082019050818103600083015261295381612917565b9050919050565b7f4552433732313a206d696e7420746f20746865207a65726f2061646472657373600082015250565b6000612990602083611ce9565b915061299b8261295a565b602082019050919050565b600060208201905081810360008301526129bf81612983565b9050919050565b7f4552433732313a20746f6b656e20616c7265616479206d696e74656400000000600082015250565b60006129fc601c83611ce9565b9150612a07826129c6565b602082019050919050565b60006020820190508181036000830152612a2b816129ef565b9050919050565b7f45524337323155524953746f726167653a2055524920736574206f66206e6f6e60008201527f6578697374656e7420746f6b656e000000000000000000000000000000000000602082015250565b6000612a8e602e83611ce9565b9150612a9982612a32565b604082019050919050565b60006020820190508181036000830152612abd81612a81565b9050919050565b60008190508160005260206000209050919050565b60006020601f8301049050919050565b600082821b905092915050565b600060088302612b267fffffffffffffffffffffffffffffffffffffffffffffffffffffffffffffffff82612ae9565b612b308683612ae9565b95508019841693508086168417925050509392505050565b6000819050919050565b6000612b6d612b68612b6384611d90565b612b48565b611d90565b9050919050565b6000819050919050565b612b8783612b52565b612b9b612b9382612b74565b848454612af6565b825550505050565b600090565b612bb0612ba3565b612bbb818484612b7e565b505050565b5b81811015612bdf57612bd4600082612ba8565b600181019050612bc1565b5050565b601f821115612c2457612bf581612ac4565b612bfe84612ad9565b81016020851015612c0d578190505b612c21612c1985612ad9565b830182612bc0565b50505b505050565b600082821c905092915050565b6000612c4760001984600802612c29565b1980831691505092915050565b6000612c608383612c36565b9150826002028217905092915050565b612c7982611cde565b67ffffffffffffffff811115612c9257612c91611fdb565b5b612c9c82546122f5565b612ca7828285612be3565b600060209050601f831160018114612cda5760008415612cc8578287015190505b612cd28582612c54565b865550612d3a565b601f198416612ce886612ac4565b60005b82811015612d1057848901518255600182019150602085019450602081019050612ceb565b86831015612d2d5784890151612d29601f891682612c36565b8355505b6001600288020188555050505b505050505050565b600081519050919050565b600082825260208201905092915050565b6000612d6982612d42565b612d738185612d4d565b9350612d83818560208601611cfa565b612d8c81611d24565b840191505092915050565b6000608082019050612dac6000830187611e25565b612db96020830186611e25565b612dc66040830185611f3b565b8181036060830152612dd88184612d5e565b905095945050505050565b600081519050612df281611c4f565b92915050565b600060208284031215612e0e57612e0d611c19565b5b6000612e1c84828501612de3565b91505092915050565b7f4e487b7100000000000000000000000000000000000000000000000000000000600052601260045260246000fdfea264697066735822122055c385f5b83bfd392f7aec3cb68c94725f1c877e2cc61f46c019a7b5d93d471264736f6c63430008130033",
  "linkReferences": {},
  "deployedLinkReferences": {}
}